:1000000019C033C032C031C030C02FC02EC02DC087
:1000100084C02BC02AC029C028C027C026C025C044
:1000200024C023C022C021C020C01FC01EC01DC0CC
:100030001CC01BC011241FBECFEFCDBFDFE3DEBF4E
:100040001FE3A0E0BFE3E8E6F3E002C005900D92F5
:10005000A430B107D9F72FE3A4E0BFE301C01D929C
:10006000A631B207E1F7BDD07DC1CACFCF93DF93F0
:100070008FB7F89420910A3F30910B3F40910C3F8D
:1000800050910D3FE091200A90910B0A90FD17C00E
:10009000E0958FBFA091143FB091153FC091123FE2
:1000A000D091133F49D1EC9F9001ED9F300D112469
:1000B000620F731F811D911DDF91CF9108952F5FF6
:1000C0003F4F4F4F5F4FE091200AE2CFCF92DF9238
:1000D000EF92FF92CBDF6B017C0120EAC20E26E893
:1000E000D21E21E0E21EF11C80EAC81686E8D8067E
:1000F00081E0E806F10430F4B9DFC616D706E80659
:10010000F906D0F3B3DF6C157D058E059F05D0F39E
:10011000FF90EF90DF90CF9008951F920F920FB64F
:100120000F9211242F933F934F935F936F937F937D
:100130008F939F93AF93BF934091063F5091073F9A
:100140006091083F7091093F8091043F9091053F75
:100150002091103F3091113F420F531F611D711DBF
:1001600020910E3F30910F3F820F931F883E23E076
:10017000920730F0885E93404F5F5F4F6F4F7F4F25
:100180008093043F9093053F4093063F5093073F71
:100190006093083F7093093F80910A3F90910B3F15
:1001A000A0910C3FB0910D3F0196A11DB11D809310
:1001B0000A3F90930B3FA0930C3FB0930D3F81E01B
:1001C00080930B0ABF91AF919F918F917F916F9117
:1001D0005F914F913F912F910F900FBE0F901F9005
:1001E000189588ED90E084BF9093610080E09DE2D7
:1001F000A1E3B1E08093003F9093013FA093023FC1
:10020000B093033F8091020686608093020680913E
:100210000006816080930006809102068F7C8093A7
:1002200002068091A0008F788093A0008091020642
:1002300080618093020621E0209301022093020254
:100240002093030A9FEF9093260A9093270A80E851
:100250008093280A80932A0A80932C0A8093290A83
:1002600080932B0A80932D0A3BE03093000A37E0FD
:100270003093410A90934C0A80934D0A85E0809315
:10028000400A83E393E08093143F9093153F80915D
:10029000143F9091153F6FEF70E03AD06093123F9A
:1002A0007093133F8091143F9091153FE8EEF3E077
:1002B000BF012ED06093103F7093113F8091143F87
:1002C0009091153FBF0124D080930E3F90930F3F34
:1002D00020930A0A8091A0008093A000789488E07F
:1002E0008093010484E080930104C8E0D4E000E03E
:1002F00010E0C0930604D0930504E8DEC093050423
:10030000D0930604E3DE0115110599F379DEF1CFF0
:10031000AA1BBB1B51E107C0AA1FBB1FA617B7072B
:1003200010F0A61BB70B881F991F5A95A9F7809547
:100330009095BC01CD01089509D0A59F900DB49F63
:10034000900DA49F800D911D11240895A29FB001CE
:10035000B39FC001A39F01D0B29F700D811D1124D6
:08036000911D0895F894FFCFF0
:04036800002D310132
:00000001FF
